:020000040000fa
:080000000002040000000000f2
:020000040000fa
:10040000cf8c200000df20000001880000000000e9
:100410000c000700206220000100200011000700ee
:10042000000020000000e000020032000000020096
:10043000000000000c060200000000000040da008e
:100440000000fe004440a900000020000000e00081
:100450000300320000002000a00188004440a800f2
:100460000000060091018800800078000000eb0089
:1004700015003700e280400032a0b4009101ba00bc
:10048000e280400032a0b4009102ba00e280400055
:1004900032a0b4000002eb00472bde00f507b200eb
:1004a000602ce10004003a000059eb008301e900f0
:1004b000fdff3e00040037006128e100010032002a
:1004c0000082eb00040007001101ba000200e00006
:1004d000e8ff3a00000006003159ba008301e90044
:1004e0000c0032002159ba008301e90008003200f3
:1004f0000400e00003003a00e280400032a0b400b3
:10050000f5ff370011d9ba008301e900faff3a007c
:100510008100e800e180400032a0b4000000060045
:020000040000fa
:100008003a0600003a0600003a0600003a060000e8
:100018003a0600003a0600003a0600003a060000d8
:10002800ae0300003a0600003a0600008205000010
:100038003a0600003a0600003a0600003a060000b8
:100048003a0600003a0600003a0600003a060000a8
:100058003a0600003a0600003a0600003a06000098
:100068003a0600003a0600003a060000f4050000cf
:100078003a0600003a0600003a0600003a06000078
:100088003a0600003a0600003a0600003a06000068
:100098003a0600003a0600003a0600003a06000058
:1000a8003a0600003a0600003a0600003a06000048
:1000b8003a0600003a0600003a0600003a06000038
:1000c8003a0600003a0600003a0600003a06000028
:1000d8003a0600003a0600003a0600003a06000018
:1000e8003a0600003a0600003a0600003a06000008
:1000f8003a0600003a0600003a0600003a060000f8
:100108003a0600003a0600003a0600003a060000e7
:100118003a0600003a0600003a0600003a060000d7
:100128003a0600003a0600003a0600003a060000c7
:100138003a0600003a0600003a0600003a060000b7
:100148003a0600003a0600003a0600003a060000a7
:100158003a0600003a0600003a0600003a06000097
:100168003a0600003a0600003a0600003a06000087
:100178003a0600003a0600003a0600003a06000077
:100188003a0600003a0600003a0600003a06000067
:100198003a0600003a0600003a0600003a06000057
:1001a8003a0600003a0600003a0600003a06000047
:1001b8003a0600003a0600003a0600003a06000037
:1001c8003a0600003a0600003a0600003a06000027
:1001d8003a0600003a0600003a0600003a06000017
:1001e8003a0600003a0600003a0600003a06000007
:0801f8003a0600003a0600007f
:020000040000fa
:100208003a0600003a0600003a0600003a060000e6
:100218003a0600003a0600003a0600003a060000d6
:10022800ae0300003a0600003a060000820500000e
:100238003a0600003a0600003a0600003a060000b6
:100248003a0600003a0600003a0600003a060000a6
:100258003a0600003a0600003a0600003a06000096
:100268003a0600003a0600003a060000f4050000cd
:100278003a0600003a0600003a0600003a06000076
:100288003a0600003a0600003a0600003a06000066
:100298003a0600003a0600003a0600003a06000056
:1002a8003a0600003a0600003a0600003a06000046
:1002b8003a0600003a0600003a0600003a06000036
:1002c8003a0600003a0600003a0600003a06000026
:1002d8003a0600003a0600003a0600003a06000016
:1002e8003a0600003a0600003a0600003a06000006
:1002f8003a0600003a0600003a0600003a060000f6
:100308003a0600003a0600003a0600003a060000e5
:100318003a0600003a0600003a0600003a060000d5
:100328003a0600003a0600003a0600003a060000c5
:100338003a0600003a0600003a0600003a060000b5
:100348003a0600003a0600003a0600003a060000a5
:100358003a0600003a0600003a0600003a06000095
:100368003a0600003a0600003a0600003a06000085
:100378003a0600003a0600003a0600003a06000075
:100388003a0600003a0600003a0600003a06000065
:100398003a0600003a0600003a0600003a06000055
:1003a8003a0600003a0600003a0600003a06000045
:1003b8003a0600003a0600003a0600003a06000035
:1003c8003a0600003a0600003a0600003a06000025
:1003d8003a0600003a0600003a0600003a06000015
:1003e8003a0600003a0600003a0600003a06000005
:0803f8003a0600003a0600007d
:020000040000fa
:0200000401f009
:040000000f000000ed
:020000040000fa
:0200000401f009
:0400080003000000f1
:020000040000fa
:0200000401f009
:04000c00810000006f
:020000040000fa
:0200000401f009
:04001000db00000011
:020000040000fa
:0200000401f009
:040014005f00000089
:020000040000fa
:0200000401f009
:04001800fb000000e9
:020000040000fa
:0200000401f009
:04001c00c30000001d
:020000040000fa
:0200000401f009
:04002000ff000000dd
:020000040000fa
:100520000600fa0010079800414798004e409000de
:100530008080fb001e0090000100680010079800fa
:100540000000eb00000f78000e0037001e00900046
:10055000610060000004e000060032001e00900010
:100560008000d10010002a00008068001007980069
:10057000030037001e0090000000d1001007980013
:100580001e0fe800700020009e0f1000efff3400e7
:100590001e0090000080fa00000006000400fa002f
:1005a000204798008540a90040128000004f780045
:1005b0002e4090000080fb004012880085c0bf00e4
:1005c000644060000004e000fcff32000080fa009c
:1005d000000006000200fa00004f78001e4078007c
:1005e000eeff0700401280000080fb000080fa0050
:1005f000000006000000fa000040eb00e7ff0700e3
:10060000401280000080fb000080fa00000006001d
:100610000400fa0010079800ca42a9001e009000ca
:100620004800de00ebff07000080fb004800dd0013
:10063000000f78001e009000e6ff07000080fb001e
:100640001e0f7000ca42a8001e0078000080fa0049
:10065000000006000200fa00000f7800ca42a9005c
:100660001e0078004800de00ccff07001e00780066
:10067000caff0700ca42a8000080fa000000060076
:100680000600fa00004f78001147980022479800b2
:100690003347980044479800c942a800c9a2a9005e
:1006a000c962a900cda2a900cd62a900cb42a800d1
:1006b0001e40780086e8b7002e40900087e8b7001b
:1006c0000000eb00e3ff070050202800e1ff0700d7
:1006d00000802b00dfff0700020037000000eb0066
:1006e000dcff0700c2c2bf000044b2000004e0000b
:1006f000faff32001e4090000080fb004400dd0045
:10070000800078007000280000807000d1ff070092
:10071000802c2800cfff0700c0f32a00cdff070080
:1007200000082900cbff0700c0232c00c9ff0700e9
:1007300010872900c7ff070070c72c00c5ff0700fe
:10074000d0232800c3ff070040c0b30089e8b700ea
:1007500087a0a9000080fa000000060000a0fe00ab
:100760003400f800881f780008002000a8018800e5
:100770004f0478000000fa0087c0bf000042b200ba
:100780000004e0000100320087a0a9000080fa0008
:100790003400f9000080fe00004006000200fa006c
:1007a000004f78001e407800c0e8b7000080eb00e2
:1007b00050448800018c2000914078005044800013
:1007c00057ff07005044880070c0b30089e8b700a5
:1007d000d02328008eff07000080fa0000000600ea
:1007e0000400fa00004f78001e04e000030032000d
:1007f000d02328001007980002003700d0202800de
:10080000100798001e00900092ff07000080fa0079
:10081000000006000800fa002007980061479800d1
:100820000000eb00100798001e0037002e0090001b
:10083000104078000080fb00c800dd001e00900022
:1008400001006800100798002e0090000000e800ea
:10085000200798000040eb00004f78000e003700a2
:100860001e0090000000e00007003d001e00900008
:100870000000400080007800100221000080680025
:1008800010079800030037001e0090000000400091
:10089000100798001e4fe80070c0b3009e4f100074
:1008a000efff36006e4090000040e900604798007e
:1008b0006e4090000004e000dcff3d001e00900050
:1008c0000080fa00000006000c00fa0040079800c3
:1008d000510798004064200010079800f0002000a5
:1008e0000032880010022100103288000000eb0066
:1008f000303288000040eb00004f78000000eb0031
:1009000020079800170037004e00900090407800b4
:100910001e009000014878004e0090000000e800a2
:10092000400798001e04a200016420009140780056
:1009300000c8b30000c060000004e0000600320000
:100940004086a80040c6bf000044b2000004e0009a
:10095000fcff32004086a9002e0090000000e80055
:1009600020079800ae0090005e009000808f50003d
:10097000e5ff390040c6bf00704060000004e000a1
:1009800001003a004086a8001e04e00003003a007f
:100990000000eb0020328800030037009e0090002a
:1009a0000040eb008048780040c6bf000044b20021
:1009b0000004e000fcff3200000000000000000026
:1009c0000000000000000000000000004086a900b8
:1009d0000000000010c0b3009e4f100017003a0046
:1009e0000000eb0020079800110037003132800032
:1009f000000028000080600030079800303280003e
:100a000000004000303288003e0090000000e0000e
:100a10000400320030328000110221000100680021
:100a2000303288002e0090000000e8002007980077
:100a30002e009000e70f5000ecff360030328000af
:100a40000080fa00000006000000fa000000eb0041
:100a5000203a88000080eb006019880070002600b2
:100a6000200588003007200000168800b07f250090
:100a700040168800c842a900c0e2a800c0c2a80071
:100a8000ca42a8000000eb00800388000000eb00d1
:100a9000900388008240a800f01320001012880004
:100aa0000000eb002012880041e2a80000902a001c
:100ab000703a8800c422a900c022a900c402a9007b
:100ac000c002a900c462a900cca2a900c062a9000a
:100ad000c8a2a900b003200010088800000120006f
:100ae000200888008200a8008400a9009400a800c3
:100af0008460a9009460a80005e1a8000080fa00c5
:100b000000000600809fbe00821f78000000fa00ef
:100b1000c4c8bf000040e800c4e8b7003046800009
:100b20000000e80030468800c4c8bf00e44f500011
:100b300002003a000040eb00c4e8b700c4c8bf00a0
:100b40000004e00002003a00c2e2a900c422a900a9
:100b5000c4c8bf00e14f500002003a00c2e2a90041
:100b6000c422a800c4c8bf00e24f500002003a00ef
:100b7000c2e2a800c422a900c4c8bf00e34f5000cd
:100b800002003a00c2e2a800c422a8003146800058
:100b900040132200808f50000e003a000000eb004e
:100ba00030468800c4c2bf000004a200614060005b
:100bb000614060006140600061416000412c2000a4
:100bc00091407800e0cfb30000c0600002407000a8
:100bd000c4e2b7008460a9000080fa004f017800e9
:100be0004f00be000040060000a0fe003400f800e8
:100bf000881f780008002000a80188004f047800b2
:100c00000000fa008660a9000080fa003400f900b4
:100c10000080fe00004006000000fa008aff070086
:100c2000840020008001eb00520020002100200001
:100c3000b000200092fe0700c0e2a900cca2a800ec
:040c4000ffff37007b
:020000040000fa
:100c440000080000c200000000000000c20800000c
:100c54000600000002000000c70d000000000000b4
:100c6400c8080000040000000000000000000000ac
:020000040000fa
:040c74000000fe007e
:00000001FF
